{
  "_format": "hh-sol-artifact-1",
  "contractName": "MyEpicNFT",
  "sourceName": "contracts/MyEpicNFT.sol",
  "abi": [
    {
      "inputs": [
        {
          "internalType": "uint256",
          "name": "maxNumberOfTokens",
          "type": "uint256"
        }
      ],
      "stateMutability": "nonpayable",
      "type": "constructor"
    },
    {
      "anonymous": false,
      "inputs": [
        {
          "indexed": true,
          "internalType": "address",
          "name": "owner",
          "type": "address"
        },
        {
          "indexed": true,
          "internalType": "address",
          "name": "approved",
          "type": "address"
        },
        {
          "indexed": true,
          "internalType": "uint256",
          "name": "tokenId",
          "type": "uint256"
        }
      ],
      "name": "Approval",
      "type": "event"
    },
    {
      "anonymous": false,
      "inputs": [
        {
          "indexed": true,
          "internalType": "address",
          "name": "owner",
          "type": "address"
        },
        {
          "indexed": true,
          "internalType": "address",
          "name": "operator",
          "type": "address"
        },
        {
          "indexed": false,
          "internalType": "bool",
          "name": "approved",
          "type": "bool"
        }
      ],
      "name": "ApprovalForAll",
      "type": "event"
    },
    {
      "anonymous": false,
      "inputs": [
        {
          "indexed": false,
          "internalType": "address",
          "name": "sender",
          "type": "address"
        },
        {
          "indexed": false,
          "internalType": "uint256",
          "name": "tokenId",
          "type": "uint256"
        }
      ],
      "name": "NewEpicNFTMinted",
      "type": "event"
    },
    {
      "anonymous": false,
      "inputs": [
        {
          "indexed": true,
          "internalType": "address",
          "name": "from",
          "type": "address"
        },
        {
          "indexed": true,
          "internalType": "address",
          "name": "to",
          "type": "address"
        },
        {
          "indexed": true,
          "internalType": "uint256",
          "name": "tokenId",
          "type": "uint256"
        }
      ],
      "name": "Transfer",
      "type": "event"
    },
    {
      "inputs": [
        {
          "internalType": "address",
          "name": "to",
          "type": "address"
        },
        {
          "internalType": "uint256",
          "name": "tokenId",
          "type": "uint256"
        }
      ],
      "name": "approve",
      "outputs": [],
      "stateMutability": "nonpayable",
      "type": "function"
    },
    {
      "inputs": [
        {
          "internalType": "address",
          "name": "owner",
          "type": "address"
        }
      ],
      "name": "balanceOf",
      "outputs": [
        {
          "internalType": "uint256",
          "name": "",
          "type": "uint256"
        }
      ],
      "stateMutability": "view",
      "type": "function"
    },
    {
      "inputs": [
        {
          "internalType": "uint256",
          "name": "tokenId",
          "type": "uint256"
        }
      ],
      "name": "getApproved",
      "outputs": [
        {
          "internalType": "address",
          "name": "",
          "type": "address"
        }
      ],
      "stateMutability": "view",
      "type": "function"
    },
    {
      "inputs": [],
      "name": "getMintMax",
      "outputs": [
        {
          "internalType": "uint256",
          "name": "",
          "type": "uint256"
        }
      ],
      "stateMutability": "view",
      "type": "function"
    },
    {
      "inputs": [],
      "name": "getTotalMinted",
      "outputs": [
        {
          "internalType": "uint256",
          "name": "",
          "type": "uint256"
        }
      ],
      "stateMutability": "view",
      "type": "function"
    },
    {
      "inputs": [
        {
          "internalType": "address",
          "name": "owner",
          "type": "address"
        },
        {
          "internalType": "address",
          "name": "operator",
          "type": "address"
        }
      ],
      "name": "isApprovedForAll",
      "outputs": [
        {
          "internalType": "bool",
          "name": "",
          "type": "bool"
        }
      ],
      "stateMutability": "view",
      "type": "function"
    },
    {
      "inputs": [],
      "name": "makeAnEpicNFT",
      "outputs": [],
      "stateMutability": "nonpayable",
      "type": "function"
    },
    {
      "inputs": [],
      "name": "name",
      "outputs": [
        {
          "internalType": "string",
          "name": "",
          "type": "string"
        }
      ],
      "stateMutability": "view",
      "type": "function"
    },
    {
      "inputs": [
        {
          "internalType": "uint256",
          "name": "tokenId",
          "type": "uint256"
        }
      ],
      "name": "ownerOf",
      "outputs": [
        {
          "internalType": "address",
          "name": "",
          "type": "address"
        }
      ],
      "stateMutability": "view",
      "type": "function"
    },
    {
      "inputs": [
        {
          "internalType": "uint256",
          "name": "tokenId",
          "type": "uint256"
        }
      ],
      "name": "pickRandomColor",
      "outputs": [
        {
          "internalType": "string",
          "name": "",
          "type": "string"
        }
      ],
      "stateMutability": "view",
      "type": "function"
    },
    {
      "inputs": [
        {
          "internalType": "uint256",
          "name": "tokenId",
          "type": "uint256"
        }
      ],
      "name": "pickRandomFirstWord",
      "outputs": [
        {
          "internalType": "string",
          "name": "",
          "type": "string"
        }
      ],
      "stateMutability": "view",
      "type": "function"
    },
    {
      "inputs": [
        {
          "internalType": "uint256",
          "name": "tokenId",
          "type": "uint256"
        }
      ],
      "name": "pickRandomSecondWord",
      "outputs": [
        {
          "internalType": "string",
          "name": "",
          "type": "string"
        }
      ],
      "stateMutability": "view",
      "type": "function"
    },
    {
      "inputs": [
        {
          "internalType": "uint256",
          "name": "tokenId",
          "type": "uint256"
        }
      ],
      "name": "pickRandomThirdWord",
      "outputs": [
        {
          "internalType": "string",
          "name": "",
          "type": "string"
        }
      ],
      "stateMutability": "view",
      "type": "function"
    },
    {
      "inputs": [
        {
          "internalType": "address",
          "name": "from",
          "type": "address"
        },
        {
          "internalType": "address",
          "name": "to",
          "type": "address"
        },
        {
          "internalType": "uint256",
          "name": "tokenId",
          "type": "uint256"
        }
      ],
      "name": "safeTransferFrom",
      "outputs": [],
      "stateMutability": "nonpayable",
      "type": "function"
    },
    {
      "inputs": [
        {
          "internalType": "address",
          "name": "from",
          "type": "address"
        },
        {
          "internalType": "address",
          "name": "to",
          "type": "address"
        },
        {
          "internalType": "uint256",
          "name": "tokenId",
          "type": "uint256"
        },
        {
          "internalType": "bytes",
          "name": "_data",
          "type": "bytes"
        }
      ],
      "name": "safeTransferFrom",
      "outputs": [],
      "stateMutability": "nonpayable",
      "type": "function"
    },
    {
      "inputs": [
        {
          "internalType": "address",
          "name": "operator",
          "type": "address"
        },
        {
          "internalType": "bool",
          "name": "approved",
          "type": "bool"
        }
      ],
      "name": "setApprovalForAll",
      "outputs": [],
      "stateMutability": "nonpayable",
      "type": "function"
    },
    {
      "inputs": [
        {
          "internalType": "bytes4",
          "name": "interfaceId",
          "type": "bytes4"
        }
      ],
      "name": "supportsInterface",
      "outputs": [
        {
          "internalType": "bool",
          "name": "",
          "type": "bool"
        }
      ],
      "stateMutability": "view",
      "type": "function"
    },
    {
      "inputs": [],
      "name": "symbol",
      "outputs": [
        {
          "internalType": "string",
          "name": "",
          "type": "string"
        }
      ],
      "stateMutability": "view",
      "type": "function"
    },
    {
      "inputs": [
        {
          "internalType": "uint256",
          "name": "tokenId",
          "type": "uint256"
        }
      ],
      "name": "tokenURI",
      "outputs": [
        {
          "internalType": "string",
          "name": "",
          "type": "string"
        }
      ],
      "stateMutability": "view",
      "type": "function"
    },
    {
      "inputs": [
        {
          "internalType": "address",
          "name": "from",
          "type": "address"
        },
        {
          "internalType": "address",
          "name": "to",
          "type": "address"
        },
        {
          "internalType": "uint256",
          "name": "tokenId",
          "type": "uint256"
        }
      ],
      "name": "transferFrom",
      "outputs": [],
      "stateMutability": "nonpayable",
      "type": "function"
    }
  ],
  "bytecode": "0x608060405260405180610100016040528060d38152602001620049b560d39139600990805190602001906200003692919062000a6e565b5060405180608001604052806056815260200162004a8860569139600a90805190602001906200006892919062000a6e565b506040518060a001604052806040518060400160405280600781526020017f233030393136450000000000000000000000000000000000000000000000000081525081526020016040518060400160405280600781526020017f234645454645350000000000000000000000000000000000000000000000000081525081526020016040518060400160405280600781526020017f234646434630300000000000000000000000000000000000000000000000000081525081526020016040518060400160405280600781526020017f234545363132330000000000000000000000000000000000000000000000000081525081526020016040518060400160405280600781526020017f2346413030334600000000000000000000000000000000000000000000000000815250815250600b906005620001ab92919062000aff565b5060405180608001604052806040518060400160405280600781526020017f436172746d616e0000000000000000000000000000000000000000000000000081525081526020016040518060400160405280600481526020017f5374616e0000000000000000000000000000000000000000000000000000000081525081526020016040518060400160405280600481526020017f4b796c650000000000000000000000000000000000000000000000000000000081525081526020016040518060400160405280600581526020017f4b656e6e79000000000000000000000000000000000000000000000000000000815250815250600c906004620002b392919062000b66565b50604051806101a001604052806040518060400160405280600781526020017f427574746572730000000000000000000000000000000000000000000000000081525081526020016040518060400160405280600481526020017f436865660000000000000000000000000000000000000000000000000000000081525081526020016040518060400160405280600581526020017f54696d6d7900000000000000000000000000000000000000000000000000000081525081526020016040518060400160405280600681526020017f44617272796c000000000000000000000000000000000000000000000000000081525081526020016040518060400160405280600581526020017f52616e647900000000000000000000000000000000000000000000000000000081525081526020016040518060400160405280600c81526020017f4d722e206761727269736f6e000000000000000000000000000000000000000081525081526020016040518060400160405280600581526020017f4a696d6d7900000000000000000000000000000000000000000000000000000081525081526020016040518060400160405280600581526020017f57656e647900000000000000000000000000000000000000000000000000000081525081526020016040518060400160405280600581526020017f436c79646500000000000000000000000000000000000000000000000000000081525081526020016040518060400160405280600581526020017f53636f747400000000000000000000000000000000000000000000000000000081525081526020016040518060400160405280600681526020017f5368656c6c79000000000000000000000000000000000000000000000000000081525081526020016040518060400160405280600581526020017f4c69616e6500000000000000000000000000000000000000000000000000000081525081526020016040518060400160405280600781526020017f5374657068656e00000000000000000000000000000000000000000000000000815250815250600d90600d620005cf92919062000bcd565b506040518061016001604052806040518060400160405280600781526020017f426172626172610000000000000000000000000000000000000000000000000081525081526020016040518060400160405280600581526020017f486569646900000000000000000000000000000000000000000000000000000081525081526020016040518060400160405280600681526020017f536861726f6e000000000000000000000000000000000000000000000000000081525081526020016040518060400160405280600881526020017f54756f6e67206c7500000000000000000000000000000000000000000000000081525081526020016040518060400160405280600e81526020017f4861727269736f6e20796174657300000000000000000000000000000000000081525081526020016040518060400160405280600881526020017f54657272616e636500000000000000000000000000000000000000000000000081525081526020016040518060400160405280600781526020017f546f77656c69650000000000000000000000000000000000000000000000000081525081526020016040518060400160405280600881526020017f4d722e536c61766500000000000000000000000000000000000000000000000081525081526020016040518060400160405280600581526020017f53616e746100000000000000000000000000000000000000000000000000000081525081526020016040518060400160405280600581526020017f4d6f73657300000000000000000000000000000000000000000000000000000081525081526020016040518060400160405280600b81526020017f466174686572204d617869000000000000000000000000000000000000000000815250815250600e90600b6200087592919062000c34565b503480156200088357600080fd5b5060405162004ade38038062004ade8339818101604052810190620008a9919062000d3f565b6040518060400160405280600f81526020017f536f757468205061726b2047616e6700000000000000000000000000000000008152506040518060400160405280600481526020017f5041524b0000000000000000000000000000000000000000000000000000000081525081600090805190602001906200092d92919062000a6e565b5080600190805190602001906200094692919062000a6e565b505050620009946040518060400160405280601e81526020017f54686973206973206d79204e465420636f6e74726163742e20576f6168210000815250620009a260201b620013da1760201c565b806008819055505062000ebc565b62000a4281604051602401620009b9919062000dac565b6040516020818303038152906040527f41304fac000000000000000000000000000000000000000000000000000000007bffffffffffffffffffffffffffffffffffffffffffffffffffffffff19166020820180517bffffffffffffffffffffffffffffffffffffffffffffffffffffffff838183161783525050505062000a4560201b60201c565b50565b60008151905060006a636f6e736f6c652e6c6f679050602083016000808483855afa5050505050565b82805462000a7c9062000e2c565b90600052602060002090601f01602090048101928262000aa0576000855562000aec565b82601f1062000abb57805160ff191683800117855562000aec565b8280016001018555821562000aec579182015b8281111562000aeb57825182559160200191906001019062000ace565b5b50905062000afb919062000c9b565b5090565b82805482825590600052602060002090810192821562000b53579160200282015b8281111562000b5257825182908051906020019062000b4192919062000a6e565b509160200191906001019062000b20565b5b50905062000b62919062000cba565b5090565b82805482825590600052602060002090810192821562000bba579160200282015b8281111562000bb957825182908051906020019062000ba892919062000a6e565b509160200191906001019062000b87565b5b50905062000bc9919062000cba565b5090565b82805482825590600052602060002090810192821562000c21579160200282015b8281111562000c2057825182908051906020019062000c0f92919062000a6e565b509160200191906001019062000bee565b5b50905062000c30919062000cba565b5090565b82805482825590600052602060002090810192821562000c88579160200282015b8281111562000c8757825182908051906020019062000c7692919062000a6e565b509160200191906001019062000c55565b5b50905062000c97919062000cba565b5090565b5b8082111562000cb657600081600090555060010162000c9c565b5090565b5b8082111562000cde576000818162000cd4919062000ce2565b5060010162000cbb565b5090565b50805462000cf09062000e2c565b6000825580601f1062000d04575062000d25565b601f01602090049060005260206000209081019062000d24919062000c9b565b5b50565b60008151905062000d398162000ea2565b92915050565b60006020828403121562000d5257600080fd5b600062000d628482850162000d28565b91505092915050565b600062000d788262000dd0565b62000d84818562000ddb565b935062000d9681856020860162000df6565b62000da18162000e91565b840191505092915050565b6000602082019050818103600083015262000dc8818462000d6b565b905092915050565b600081519050919050565b600082825260208201905092915050565b6000819050919050565b60005b8381101562000e1657808201518184015260208101905062000df9565b8381111562000e26576000848401525b50505050565b6000600282049050600182168062000e4557607f821691505b6020821081141562000e5c5762000e5b62000e62565b5b50919050565b7f4e487b7100000000000000000000000000000000000000000000000000000000600052602260045260246000fd5b6000601f19601f8301169050919050565b62000ead8162000dec565b811462000eb957600080fd5b50565b613ae98062000ecc6000396000f3fe608060405234801561001057600080fd5b506004361061012c5760003560e01c80636352211e116100ad578063b88d4fde11610071578063b88d4fde14610369578063c575757a14610385578063c87b56dd146103b5578063de9d132f146103e5578063e985e9c5146103ef5761012c565b80636352211e1461029f57806370a08231146102cf57806395d89b41146102ff578063a22cb4651461031d578063b187301f146103395761012c565b80631e51e4a1116100f45780631e51e4a1146101e957806323b872dd146102075780632de38d681461022357806342842e0e14610253578063514dc8c61461026f5761012c565b806301ffc9a71461013157806306fdde0314610161578063081812fc1461017f578063095ea7b3146101af5780630ca1c5c9146101cb575b600080fd5b61014b6004803603810190610146919061266d565b61041f565b604051610158919061333f565b60405180910390f35b610169610501565b604051610176919061335a565b60405180910390f35b610199600480360381019061019491906126bf565b610593565b6040516101a691906132af565b60405180910390f35b6101c960048036038101906101c49190612631565b610618565b005b6101d3610730565b6040516101e091906135da565b60405180910390f35b6101f161074d565b6040516101fe91906135da565b60405180910390f35b610221600480360381019061021c919061252b565b610757565b005b61023d600480360381019061023891906126bf565b6107b7565b60405161024a919061335a565b60405180910390f35b61026d6004803603810190610268919061252b565b6108d5565b005b610289600480360381019061028491906126bf565b6108f5565b604051610296919061335a565b60405180910390f35b6102b960048036038101906102b491906126bf565b610a13565b6040516102c691906132af565b60405180910390f35b6102e960048036038101906102e491906124c6565b610ac5565b6040516102f691906135da565b60405180910390f35b610307610b7d565b604051610314919061335a565b60405180910390f35b610337600480360381019061033291906125f5565b610c0f565b005b610353600480360381019061034e91906126bf565b610d90565b604051610360919061335a565b60405180910390f35b610383600480360381019061037e919061257a565b610eae565b005b61039f600480360381019061039a91906126bf565b610f10565b6040516103ac919061335a565b60405180910390f35b6103cf60048036038101906103ca91906126bf565b61102e565b6040516103dc919061335a565b60405180910390f35b6103ed611180565b005b610409600480360381019061040491906124ef565b611346565b604051610416919061333f565b60405180910390f35b60007f80ac58cd000000000000000000000000000000000000000000000000000000007bffffffffffffffffffffffffffffffffffffffffffffffffffffffff1916827bffffffffffffffffffffffffffffffffffffffffffffffffffffffff191614806104ea57507f5b5e139f000000000000000000000000000000000000000000000000000000007bffffffffffffffffffffffffffffffffffffffffffffffffffffffff1916827bffffffffffffffffffffffffffffffffffffffffffffffffffffffff1916145b806104fa57506104f982611473565b5b9050919050565b60606000805461051090613879565b80601f016020809104026020016040519081016040528092919081815260200182805461053c90613879565b80156105895780601f1061055e57610100808354040283529160200191610589565b820191906000526020600020905b81548152906001019060200180831161056c57829003601f168201915b5050505050905090565b600061059e826114dd565b6105dd576040517f08c379a00000000000000000000000000000000000000000000000000000000081526004016105d49061353a565b60405180910390fd5b6004600083815260200190815260200160002060009054906101000a900473ffffffffffffffffffffffffffffffffffffffff169050919050565b600061062382610a13565b90508073ffffffffffffffffffffffffffffffffffffffff168373ffffffffffffffffffffffffffffffffffffffff161415610694576040517f08c379a000000000000000000000000000000000000000000000000000000000815260040161068b9061359a565b60405180910390fd5b8073ffffffffffffffffffffffffffffffffffffffff166106b3611549565b73ffffffffffffffffffffffffffffffffffffffff1614806106e257506106e1816106dc611549565b611346565b5b610721576040517f08c379a00000000000000000000000000000000000000000000000000000000081526004016107189061347a565b60405180910390fd5b61072b8383611551565b505050565b6000600161073e600761160a565b610748919061378f565b905090565b6000600854905090565b610768610762611549565b82611618565b6107a7576040517f08c379a000000000000000000000000000000000000000000000000000000000815260040161079e906135ba565b60405180910390fd5b6107b28383836116f6565b505050565b606060006107eb6107c784611952565b6040516020016107d79190613249565b604051602081830303815290604052611aff565b9050600c80549050816107fe91906138f4565b9050600c818154811061083a577f4e487b7100000000000000000000000000000000000000000000000000000000600052603260045260246000fd5b90600052602060002001805461084f90613879565b80601f016020809104026020016040519081016040528092919081815260200182805461087b90613879565b80156108c85780601f1061089d576101008083540402835291602001916108c8565b820191906000526020600020905b8154815290600101906020018083116108ab57829003601f168201915b5050505050915050919050565b6108f083838360405180602001604052806000815250610eae565b505050565b6060600061092961090584611952565b604051602001610915919061328d565b604051602081830303815290604052611aff565b9050600b805490508161093c91906138f4565b9050600b8181548110610978577f4e487b7100000000000000000000000000000000000000000000000000000000600052603260045260246000fd5b90600052602060002001805461098d90613879565b80601f01602080910402602001604051908101604052809291908181526020018280546109b990613879565b8015610a065780601f106109db57610100808354040283529160200191610a06565b820191906000526020600020905b8154815290600101906020018083116109e957829003601f168201915b5050505050915050919050565b6000806002600084815260200190815260200160002060009054906101000a900473ffffffffffffffffffffffffffffffffffffffff169050600073ffffffffffffffffffffffffffffffffffffffff168173ffffffffffffffffffffffffffffffffffffffff161415610abc576040517f08c379a0000000000000000000000000000000000000000000000000000000008152600401610ab3906134ba565b60405180910390fd5b80915050919050565b60008073ffffffffffffffffffffffffffffffffffffffff168273ffffffffffffffffffffffffffffffffffffffff161415610b36576040517f08c379a0000000000000000000000000000000000000000000000000000000008152600401610b2d9061349a565b60405180910390fd5b600360008373ffffffffffffffffffffffffffffffffffffffff1673ffffffffffffffffffffffffffffffffffffffff168152602001908152602001600020549050919050565b606060018054610b8c90613879565b80601f0160208091040260200160405190810160405280929190818152602001828054610bb890613879565b8015610c055780601f10610bda57610100808354040283529160200191610c05565b820191906000526020600020905b815481529060010190602001808311610be857829003601f168201915b5050505050905090565b610c17611549565b73ffffffffffffffffffffffffffffffffffffffff168273ffffffffffffffffffffffffffffffffffffffff161415610c85576040517f08c379a0000000000000000000000000000000000000000000000000000000008152600401610c7c9061343a565b60405180910390fd5b8060056000610c92611549565b73ffffffffffffffffffffffffffffffffffffffff1673ffffffffffffffffffffffffffffffffffffffff16815260200190815260200160002060008473ffffffffffffffffffffffffffffffffffffffff1673ffffffffffffffffffffffffffffffffffffffff16815260200190815260200160002060006101000a81548160ff0219169083151502179055508173ffffffffffffffffffffffffffffffffffffffff16610d3f611549565b73ffffffffffffffffffffffffffffffffffffffff167f17307eab39ab6107e8899845ad3d59bd9653f200f220920489ca2b5937696c3183604051610d84919061333f565b60405180910390a35050565b60606000610dc4610da084611952565b604051602001610db091906131e2565b604051602081830303815290604052611aff565b9050600d8054905081610dd791906138f4565b9050600d8181548110610e13577f4e487b7100000000000000000000000000000000000000000000000000000000600052603260045260246000fd5b906000526020600020018054610e2890613879565b80601f0160208091040260200160405190810160405280929190818152602001828054610e5490613879565b8015610ea15780601f10610e7657610100808354040283529160200191610ea1565b820191906000526020600020905b815481529060010190602001808311610e8457829003601f168201915b5050505050915050919050565b610ebf610eb9611549565b83611618565b610efe576040517f08c379a0000000000000000000000000000000000000000000000000000000008152600401610ef5906135ba565b60405180910390fd5b610f0a84848484611b32565b50505050565b60606000610f44610f2084611952565b604051602001610f3091906131c0565b604051602081830303815290604052611aff565b9050600e8054905081610f5791906138f4565b9050600e8181548110610f93577f4e487b7100000000000000000000000000000000000000000000000000000000600052603260045260246000fd5b906000526020600020018054610fa890613879565b80601f0160208091040260200160405190810160405280929190818152602001828054610fd490613879565b80156110215780601f10610ff657610100808354040283529160200191611021565b820191906000526020600020905b81548152906001019060200180831161100457829003601f168201915b5050505050915050919050565b6060611039826114dd565b611078576040517f08c379a000000000000000000000000000000000000000000000000000000000815260040161106f9061351a565b60405180910390fd5b600060066000848152602001908152602001600020805461109890613879565b80601f01602080910402602001604051908101604052809291908181526020018280546110c490613879565b80156111115780601f106110e657610100808354040283529160200191611111565b820191906000526020600020905b8154815290600101906020018083116110f457829003601f168201915b505050505090506000611122611b8e565b905060008151141561113857819250505061117b565b60008251111561116d578082604051602001611155929190613108565b6040516020818303038152906040529250505061117b565b61117684611ba5565b925050505b919050565b60085461118d600761160a565b106111cd576040517f08c379a00000000000000000000000000000000000000000000000000000000081526004016111c4906133da565b60405180910390fd5b60006111d9600761160a565b905060006111e6826107b7565b905060006111f383610d90565b9050600061120084610f10565b905060008383836040516020016112199392919061312c565b60405160208183030381529060405290506000611235866108f5565b90506000600982600a8888886040516020016112569695949392919061315d565b6040516020818303038152906040529050600061129b8461127684611c4c565b604051602001611287929190613204565b604051602081830303815290604052611c4c565b90506000816040516020016112b0919061326b565b60405160208183030381529060405290506112cb338a611e0a565b6112d58982611e28565b6112f8604051806060016040528060258152602001613a4f602591398a33611e9c565b6113026007611f3b565b7febb98688741ffa4c7589bf325de30cf7becb63de567842e1ccdb6cb949fdc82c338a604051611333929190613316565b60405180910390a1505050505050505050565b6000600560008473ffffffffffffffffffffffffffffffffffffffff1673ffffffffffffffffffffffffffffffffffffffff16815260200190815260200160002060008373ffffffffffffffffffffffffffffffffffffffff1673ffffffffffffffffffffffffffffffffffffffff16815260200190815260200160002060009054906101000a900460ff16905092915050565b611470816040516024016113ee919061335a565b6040516020818303038152906040527f41304fac000000000000000000000000000000000000000000000000000000007bffffffffffffffffffffffffffffffffffffffffffffffffffffffff19166020820180517bffffffffffffffffffffffffffffffffffffffffffffffffffffffff8381831617835250505050611f51565b50565b60007f01ffc9a7000000000000000000000000000000000000000000000000000000007bffffffffffffffffffffffffffffffffffffffffffffffffffffffff1916827bffffffffffffffffffffffffffffffffffffffffffffffffffffffff1916149050919050565b60008073ffffffffffffffffffffffffffffffffffffffff166002600084815260200190815260200160002060009054906101000a900473ffffffffffffffffffffffffffffffffffffffff1673ffffffffffffffffffffffffffffffffffffffff1614159050919050565b600033905090565b816004600083815260200190815260200160002060006101000a81548173ffffffffffffffffffffffffffffffffffffffff021916908373ffffffffffffffffffffffffffffffffffffffff160217905550808273ffffffffffffffffffffffffffffffffffffffff166115c483610a13565b73ffffffffffffffffffffffffffffffffffffffff167f8c5be1e5ebec7d5bd14f71427d1e84f3dd0314c0f7b2291e5b200ac8c7c3b92560405160405180910390a45050565b600081600001549050919050565b6000611623826114dd565b611662576040517f08c379a00000000000000000000000000000000000000000000000000000000081526004016116599061345a565b60405180910390fd5b600061166d83610a13565b90508073ffffffffffffffffffffffffffffffffffffffff168473ffffffffffffffffffffffffffffffffffffffff1614806116dc57508373ffffffffffffffffffffffffffffffffffffffff166116c484610593565b73ffffffffffffffffffffffffffffffffffffffff16145b806116ed57506116ec8185611346565b5b91505092915050565b8273ffffffffffffffffffffffffffffffffffffffff1661171682610a13565b73ffffffffffffffffffffffffffffffffffffffff161461176c576040517f08c379a00000000000000000000000000000000000000000000000000000000081526004016117639061355a565b60405180910390fd5b600073ffffffffffffffffffffffffffffffffffffffff168273ffffffffffffffffffffffffffffffffffffffff1614156117dc576040517f08c379a00000000000000000000000000000000000000000000000000000000081526004016117d39061341a565b60405180910390fd5b6117e7838383611f7a565b6117f2600082611551565b6001600360008573ffffffffffffffffffffffffffffffffffffffff1673ffffffffffffffffffffffffffffffffffffffff1681526020019081526020016000206000828254611842919061378f565b925050819055506001600360008473ffffffffffffffffffffffffffffffffffffffff1673ffffffffffffffffffffffffffffffffffffffff168152602001908152602001600020600082825461189991906136ae565b92505081905550816002600083815260200190815260200160002060006101000a81548173ffffffffffffffffffffffffffffffffffffffff021916908373ffffffffffffffffffffffffffffffffffffffff160217905550808273ffffffffffffffffffffffffffffffffffffffff168473ffffffffffffffffffffffffffffffffffffffff167fddf252ad1be2c89b69c2b068fc378daa952ba7f163c4a11628f55a4df523b3ef60405160405180910390a4505050565b6060600082141561199a576040518060400160405280600181526020017f30000000000000000000000000000000000000000000000000000000000000008152509050611afa565b600082905060005b600082146119cc5780806119b5906138ab565b915050600a826119c59190613704565b91506119a2565b60008167ffffffffffffffff811115611a0e577f4e487b7100000000000000000000000000000000000000000000000000000000600052604160045260246000fd5b6040519080825280601f01601f191660200182016040528015611a405781602001600182028036833780820191505090505b5090505b60008514611af357600182611a59919061378f565b9150600a85611a6891906138f4565b6030611a7491906136ae565b60f81b818381518110611ab0577f4e487b7100000000000000000000000000000000000000000000000000000000600052603260045260246000fd5b60200101907effffffffffffffffffffffffffffffffffffffffffffffffffffffffffffff1916908160001a905350600a85611aec9190613704565b9450611a44565b8093505050505b919050565b600081604051602001611b1291906130f1565b6040516020818303038152906040528051906020012060001c9050919050565b611b3d8484846116f6565b611b4984848484611f7f565b611b88576040517f08c379a0000000000000000000000000000000000000000000000000000000008152600401611b7f906133ba565b60405180910390fd5b50505050565b606060405180602001604052806000815250905090565b6060611bb0826114dd565b611bef576040517f08c379a0000000000000000000000000000000000000000000000000000000008152600401611be69061357a565b60405180910390fd5b6000611bf9611b8e565b90506000815111611c195760405180602001604052806000815250611c44565b80611c2384611952565b604051602001611c34929190613108565b6040516020818303038152906040525b915050919050565b60606000825190506000811415611c755760405180602001604052806000815250915050611e05565b60006003600283611c8691906136ae565b611c909190613704565b6004611c9c9190613735565b90506000602082611cad91906136ae565b67ffffffffffffffff811115611cec577f4e487b7100000000000000000000000000000000000000000000000000000000600052604160045260246000fd5b6040519080825280601f01601f191660200182016040528015611d1e5781602001600182028036833780820191505090505b5090506000604051806060016040528060408152602001613a74604091399050600181016020830160005b86811015611dc25760038101905062ffffff818a015116603f8160121c168401518060081b905060ff603f83600c1c1686015116810190508060081b905060ff603f8360061c1686015116810190508060081b905060ff603f831686015116810190508060e01b90508084526004840193505050611d49565b506003860660018114611ddc5760028114611dec57611df7565b613d3d60f01b6002830352611df7565b603d60f81b60018303525b508484525050819450505050505b919050565b611e24828260405180602001604052806000815250612116565b5050565b611e31826114dd565b611e70576040517f08c379a0000000000000000000000000000000000000000000000000000000008152600401611e67906134da565b60405180910390fd5b80600660008481526020019081526020016000209080519060200190611e97929190612352565b505050565b611f36838383604051602401611eb49392919061337c565b6040516020818303038152906040527fe3849f79000000000000000000000000000000000000000000000000000000007bffffffffffffffffffffffffffffffffffffffffffffffffffffffff19166020820180517bffffffffffffffffffffffffffffffffffffffffffffffffffffffff8381831617835250505050611f51565b505050565b6001816000016000828254019250508190555050565b60008151905060006a636f6e736f6c652e6c6f679050602083016000808483855afa5050505050565b505050565b6000611fa08473ffffffffffffffffffffffffffffffffffffffff16612171565b15612109578373ffffffffffffffffffffffffffffffffffffffff1663150b7a02611fc9611549565b8786866040518563ffffffff1660e01b8152600401611feb94939291906132ca565b602060405180830381600087803b15801561200557600080fd5b505af192505050801561203657506040513d601f19601f820116820180604052508101906120339190612696565b60015b6120b9573d8060008114612066576040519150601f19603f3d011682016040523d82523d6000602084013e61206b565b606091505b506000815114156120b1576040517f08c379a00000000000000000000000000000000000000000000000000000000081526004016120a8906133ba565b60405180910390fd5b805181602001fd5b63150b7a0260e01b7bffffffffffffffffffffffffffffffffffffffffffffffffffffffff1916817bffffffffffffffffffffffffffffffffffffffffffffffffffffffff19161491505061210e565b600190505b949350505050565b6121208383612184565b61212d6000848484611f7f565b61216c576040517f08c379a0000000000000000000000000000000000000000000000000000000008152600401612163906133ba565b60405180910390fd5b505050565b600080823b905060008111915050919050565b600073ffffffffffffffffffffffffffffffffffffffff168273ffffffffffffffffffffffffffffffffffffffff1614156121f4576040517f08c379a00000000000000000000000000000000000000000000000000000000081526004016121eb906134fa565b60405180910390fd5b6121fd816114dd565b1561223d576040517f08c379a0000000000000000000000000000000000000000000000000000000008152600401612234906133fa565b60405180910390fd5b61224960008383611f7a565b6001600360008473ffffffffffffffffffffffffffffffffffffffff1673ffffffffffffffffffffffffffffffffffffffff168152602001908152602001600020600082825461229991906136ae565b92505081905550816002600083815260200190815260200160002060006101000a81548173ffffffffffffffffffffffffffffffffffffffff021916908373ffffffffffffffffffffffffffffffffffffffff160217905550808273ffffffffffffffffffffffffffffffffffffffff16600073ffffffffffffffffffffffffffffffffffffffff167fddf252ad1be2c89b69c2b068fc378daa952ba7f163c4a11628f55a4df523b3ef60405160405180910390a45050565b82805461235e90613879565b90600052602060002090601f01602090048101928261238057600085556123c7565b82601f1061239957805160ff19168380011785556123c7565b828001600101855582156123c7579182015b828111156123c65782518255916020019190600101906123ab565b5b5090506123d491906123d8565b5090565b5b808211156123f15760008160009055506001016123d9565b5090565b600061240861240384613626565b6135f5565b90508281526020810184848401111561242057600080fd5b61242b848285613837565b509392505050565b600081359050612442816139f2565b92915050565b60008135905061245781613a09565b92915050565b60008135905061246c81613a20565b92915050565b60008151905061248181613a20565b92915050565b600082601f83011261249857600080fd5b81356124a88482602086016123f5565b91505092915050565b6000813590506124c081613a37565b92915050565b6000602082840312156124d857600080fd5b60006124e684828501612433565b91505092915050565b6000806040838503121561250257600080fd5b600061251085828601612433565b925050602061252185828601612433565b9150509250929050565b60008060006060848603121561254057600080fd5b600061254e86828701612433565b935050602061255f86828701612433565b9250506040612570868287016124b1565b9150509250925092565b6000806000806080858703121561259057600080fd5b600061259e87828801612433565b94505060206125af87828801612433565b93505060406125c0878288016124b1565b925050606085013567ffffffffffffffff8111156125dd57600080fd5b6125e987828801612487565b91505092959194509250565b6000806040838503121561260857600080fd5b600061261685828601612433565b925050602061262785828601612448565b9150509250929050565b6000806040838503121561264457600080fd5b600061265285828601612433565b9250506020612663858286016124b1565b9150509250929050565b60006020828403121561267f57600080fd5b600061268d8482850161245d565b91505092915050565b6000602082840312156126a857600080fd5b60006126b684828501612472565b91505092915050565b6000602082840312156126d157600080fd5b60006126df848285016124b1565b91505092915050565b6126f1816137c3565b82525050565b612700816137d5565b82525050565b60006127118261366b565b61271b8185613681565b935061272b818560208601613846565b612734816139e1565b840191505092915050565b600061274a82613676565b6127548185613692565b9350612764818560208601613846565b61276d816139e1565b840191505092915050565b600061278382613676565b61278d81856136a3565b935061279d818560208601613846565b80840191505092915050565b600081546127b681613879565b6127c081866136a3565b945060018216600081146127db57600181146127ec5761281f565b60ff1983168652818601935061281f565b6127f585613656565b60005b83811015612817578154818901526001820191506020810190506127f8565b838801955050505b50505092915050565b6000612835603283613692565b91507f4552433732313a207472616e7366657220746f206e6f6e20455243373231526560008301527f63656976657220696d706c656d656e74657200000000000000000000000000006020830152604082019050919050565b600061289b602083613692565b91507f5468657265277265206e6f206d6f726520746f6b656e7320746f206d696e742e6000830152602082019050919050565b60006128db601c83613692565b91507f4552433732313a20746f6b656e20616c7265616479206d696e746564000000006000830152602082019050919050565b600061291b600a836136a3565b91507f54484952445f574f5244000000000000000000000000000000000000000000006000830152600a82019050919050565b600061295b602483613692565b91507f4552433732313a207472616e7366657220746f20746865207a65726f2061646460008301527f72657373000000000000000000000000000000000000000000000000000000006020830152604082019050919050565b60006129c1601983613692565b91507f4552433732313a20617070726f766520746f2063616c6c6572000000000000006000830152602082019050919050565b6000612a01600b836136a3565b91507f5345434f4e445f574f52440000000000000000000000000000000000000000006000830152600b82019050919050565b6000612a41602c83613692565b91507f4552433732313a206f70657261746f7220717565727920666f72206e6f6e657860008301527f697374656e7420746f6b656e00000000000000000000000000000000000000006020830152604082019050919050565b6000612aa7600d836136a3565b91507f3c2f746578743e3c2f7376673e000000000000000000000000000000000000006000830152600d82019050919050565b6000612ae7603883613692565b91507f4552433732313a20617070726f76652063616c6c6572206973206e6f74206f7760008301527f6e6572206e6f7220617070726f76656420666f7220616c6c00000000000000006020830152604082019050919050565b6000612b4d602a83613692565b91507f4552433732313a2062616c616e636520717565727920666f7220746865207a6560008301527f726f2061646472657373000000000000000000000000000000000000000000006020830152604082019050919050565b6000612bb3602983613692565b91507f4552433732313a206f776e657220717565727920666f72206e6f6e657869737460008301527f656e7420746f6b656e00000000000000000000000000000000000000000000006020830152604082019050919050565b6000612c19602e83613692565b91507f45524337323155524953746f726167653a2055524920736574206f66206e6f6e60008301527f6578697374656e7420746f6b656e0000000000000000000000000000000000006020830152604082019050919050565b6000612c7f6002836136a3565b91507f227d0000000000000000000000000000000000000000000000000000000000006000830152600282019050919050565b6000612cbf602083613692565b91507f4552433732313a206d696e7420746f20746865207a65726f20616464726573736000830152602082019050919050565b6000612cff605b836136a3565b91507f222c20226465736372697074696f6e223a202252616e646f6d20536f7574682060008301527f5061726b20636861726163746572206e616d6573222c2022696d616765223a2060208301527f22646174613a696d6167652f7376672b7a6d6c3b6261736536342c00000000006040830152605b82019050919050565b6000612d8b603183613692565b91507f45524337323155524953746f726167653a2055524920717565727920666f722060008301527f6e6f6e6578697374656e7420746f6b656e0000000000000000000000000000006020830152604082019050919050565b6000612df1602c83613692565b91507f4552433732313a20617070726f76656420717565727920666f72206e6f6e657860008301527f697374656e7420746f6b656e00000000000000000000000000000000000000006020830152604082019050919050565b6000612e57602983613692565b91507f4552433732313a207472616e73666572206f6620746f6b656e2074686174206960008301527f73206e6f74206f776e00000000000000000000000000000000000000000000006020830152604082019050919050565b6000612ebd602f83613692565b91507f4552433732314d657461646174613a2055524920717565727920666f72206e6f60008301527f6e6578697374656e7420746f6b656e00000000000000000000000000000000006020830152604082019050919050565b6000612f23600a836136a3565b91507f7b226e616d65223a2022000000000000000000000000000000000000000000006000830152600a82019050919050565b6000612f63602183613692565b91507f4552433732313a20617070726f76616c20746f2063757272656e74206f776e6560008301527f72000000000000000000000000000000000000000000000000000000000000006020830152604082019050919050565b6000612fc9600a836136a3565b91507f46495253545f574f5244000000000000000000000000000000000000000000006000830152600a82019050919050565b6000613009601d836136a3565b91507f646174613a6170706c69636174696f6e2f6a736f6e3b6261736536342c0000006000830152601d82019050919050565b6000613049603183613692565b91507f4552433732313a207472616e736665722063616c6c6572206973206e6f74206f60008301527f776e6572206e6f7220617070726f7665640000000000000000000000000000006020830152604082019050919050565b60006130af6005836136a3565b91507f434f4c4f520000000000000000000000000000000000000000000000000000006000830152600582019050919050565b6130eb8161382d565b82525050565b60006130fd8284612778565b915081905092915050565b60006131148285612778565b91506131208284612778565b91508190509392505050565b60006131388286612778565b91506131448285612778565b91506131508284612778565b9150819050949350505050565b600061316982896127a9565b91506131758288612778565b915061318182876127a9565b915061318d8286612778565b91506131998285612778565b91506131a58284612778565b91506131b082612a9a565b9150819050979650505050505050565b60006131cb8261290e565b91506131d78284612778565b915081905092915050565b60006131ed826129f4565b91506131f98284612778565b915081905092915050565b600061320f82612f16565b915061321b8285612778565b915061322682612cf2565b91506132328284612778565b915061323d82612c72565b91508190509392505050565b600061325482612fbc565b91506132608284612778565b915081905092915050565b600061327682612ffc565b91506132828284612778565b915081905092915050565b6000613298826130a2565b91506132a48284612778565b915081905092915050565b60006020820190506132c460008301846126e8565b92915050565b60006080820190506132df60008301876126e8565b6132ec60208301866126e8565b6132f960408301856130e2565b818103606083015261330b8184612706565b905095945050505050565b600060408201905061332b60008301856126e8565b61333860208301846130e2565b9392505050565b600060208201905061335460008301846126f7565b92915050565b60006020820190508181036000830152613374818461273f565b905092915050565b60006060820190508181036000830152613396818661273f565b90506133a560208301856130e2565b6133b260408301846126e8565b949350505050565b600060208201905081810360008301526133d381612828565b9050919050565b600060208201905081810360008301526133f38161288e565b9050919050565b60006020820190508181036000830152613413816128ce565b9050919050565b600060208201905081810360008301526134338161294e565b9050919050565b60006020820190508181036000830152613453816129b4565b9050919050565b6000602082019050818103600083015261347381612a34565b9050919050565b6000602082019050818103600083015261349381612ada565b9050919050565b600060208201905081810360008301526134b381612b40565b9050919050565b600060208201905081810360008301526134d381612ba6565b9050919050565b600060208201905081810360008301526134f381612c0c565b9050919050565b6000602082019050818103600083015261351381612cb2565b9050919050565b6000602082019050818103600083015261353381612d7e565b9050919050565b6000602082019050818103600083015261355381612de4565b9050919050565b6000602082019050818103600083015261357381612e4a565b9050919050565b6000602082019050818103600083015261359381612eb0565b9050919050565b600060208201905081810360008301526135b381612f56565b9050919050565b600060208201905081810360008301526135d38161303c565b9050919050565b60006020820190506135ef60008301846130e2565b92915050565b6000604051905081810181811067ffffffffffffffff8211171561361c5761361b6139b2565b5b8060405250919050565b600067ffffffffffffffff821115613641576136406139b2565b5b601f19601f8301169050602081019050919050565b60008190508160005260206000209050919050565b600081519050919050565b600081519050919050565b600082825260208201905092915050565b600082825260208201905092915050565b600081905092915050565b60006136b98261382d565b91506136c48361382d565b9250827fffffffffffffffffffffffffffffffffffffffffffffffffffffffffffffffff038211156136f9576136f8613925565b5b828201905092915050565b600061370f8261382d565b915061371a8361382d565b92508261372a57613729613954565b5b828204905092915050565b60006137408261382d565b915061374b8361382d565b9250817fffffffffffffffffffffffffffffffffffffffffffffffffffffffffffffffff048311821515161561378457613783613925565b5b828202905092915050565b600061379a8261382d565b91506137a58361382d565b9250828210156137b8576137b7613925565b5b828203905092915050565b60006137ce8261380d565b9050919050565b60008115159050919050565b60007fffffffff0000000000000000000000000000000000000000000000000000000082169050919050565b600073ffffffffffffffffffffffffffffffffffffffff82169050919050565b6000819050919050565b82818337600083830152505050565b60005b83811015613864578082015181840152602081019050613849565b83811115613873576000848401525b50505050565b6000600282049050600182168061389157607f821691505b602082108114156138a5576138a4613983565b5b50919050565b60006138b68261382d565b91507fffffffffffffffffffffffffffffffffffffffffffffffffffffffffffffffff8214156138e9576138e8613925565b5b600182019050919050565b60006138ff8261382d565b915061390a8361382d565b92508261391a57613919613954565b5b828206905092915050565b7f4e487b7100000000000000000000000000000000000000000000000000000000600052601160045260246000fd5b7f4e487b7100000000000000000000000000000000000000000000000000000000600052601260045260246000fd5b7f4e487b7100000000000000000000000000000000000000000000000000000000600052602260045260246000fd5b7f4e487b7100000000000000000000000000000000000000000000000000000000600052604160045260246000fd5b6000601f19601f8301169050919050565b6139fb816137c3565b8114613a0657600080fd5b50565b613a12816137d5565b8114613a1d57600080fd5b50565b613a29816137e1565b8114613a3457600080fd5b50565b613a408161382d565b8114613a4b57600080fd5b5056fe416e204e465420772f20494420257320686173206265656e206d696e74656420746f2025734142434445464748494a4b4c4d4e4f505152535455565758595a6162636465666768696a6b6c6d6e6f707172737475767778797a303132333435363738392b2fa264697066735822122099fa83a2d17b0482b836406472ed06eb2608094cab4603edea8231f4786debe664736f6c634300080000333c73766720786d6c6e733d27687474703a2f2f7777772e77332e6f72672f323030302f73766727207072657365727665417370656374526174696f3d27784d696e594d696e206d656574272076696577426f783d273020302033353020333530273e3c7374796c653e2e62617365207b2066696c6c3a2077686974653b20666f6e742d66616d696c793a2073657269663b20666f6e742d73697a653a20323470783b207d3c2f7374796c653e3c726563742077696474683d273130302527206865696768743d2731303025272066696c6c3d27272f3e3c7465787420783d273530252720793d273530252720636c6173733d27626173652720646f6d696e616e742d626173656c696e653d276d6964646c652720746578742d616e63686f723d276d6964646c65273e",
  "linkReferences": {},
  "deployedLinkReferences": {}
}